:020000001429C1
:100200008A010A140F3982073F3406345B344F34B5
:1002100066346D347D3407347F34673477347C340E
:1002200039345E34793471340317831688018901B7
:10023000031383160F178F120F160F140313831651
:100240008112811101158114011403138316860193
:100250008701880105148514031383128501860123
:1002600088018701A2013D308100A101870A05189C
:100270005021051C522185185A21851C5C210B1D1B
:100280003F290B113D308100A20A4721362922085F
:100290000A3C031D0800A201880A3D30810036296E
:1002A00070140800701C0800A10A210800218600B3
:1002B000F0010800F0140800F01C0800A103210858
:0802C00000218600F001080096
:04400E00D420FF3F7C
:00000001FF
